:100000000C9463000C948B000C948B000C948B006C
:100010000C948B000C948B000C948B000C948B0034
:100020000C948B000C948B000C948B000C948B0024
:100030000C948B000C948B000C948B000C948B0014
:100040000C945E030C948B000C948B000C948B002E
:100050000C948B000C948B000C948B000C948B00F4
:100060000C948B000C948B000000000024002700EF
:100070002A000000000023002600290000000000E4
:10008000250028002B0004040404040404040202D4
:100090000202020203030303030301020408102007
:1000A0004080010204081020010204081020000012
:1000B0000008000201000003040700000000000027
:1000C00000003005960511241FBECFEFD8E0DEBF3B
:1000D000CDBF11E0A0E0B1E0E0EDFFE002C005908F
:1000E0000D92AA30B107D9F721E0AAE0B1E001C032
:1000F0001D92A133B207E1F710E0C2E6D0E004C0E0
:100100002197FE010E948D06C136D107C9F70E94D2
:10011000A8030C94DB070C940000E0911901F09106
:100120001A018E179F0798F530911F01332361F054
:10013000639FB0011124672F349FA0011124452F24
:10014000329F90011124232F30912501E09120014D
:10015000F09121015091220135131AC0DC01AA0F40
:10016000BB1F8A0F9B1F8E0F9F1FE0912201E80F7C
:10017000F92FF11D6083E0912301E80FF92FF11DA4
:10018000408330912401830F911DFC012083089549
:10019000880F991F880F991F8E0F9F1FFC01E30F77
:1001A000F11D1082E2CF833081F028F4813099F084
:1001B0008230A9F008958730A9F08830C9F08430E2
:1001C000B1F4809180008F7D03C0809180008F7793
:1001D00080938000089584B58F7784BD089584B599
:1001E0008F7DFBCF8091B0008F778093B000089512
:1001F0008091B0008F7DF9CFCF93DF93282F30E02F
:10020000F901E255FF4F8491F901E656FF4FD49171
:10021000F901EA57FF4FC491CC2391F081110E945C
:10022000D300EC2FF0E0EE0FFF1FE458FF4FA59135
:10023000B4918FB7F894EC91D095DE23DC938FBF07
:10024000DF91CF910895CF93DF93282F30E0F9010C
:10025000E255FF4F8491F901E656FF4FD491F90121
:10026000EA57FF4FC491CC23A1F081110E94D30023
:10027000EC2FF0E0EE0FFF1FEE58FF4FA591B49169
:10028000EC91ED2381E090E009F480E0DF91CF91E3
:10029000089580E090E0FACFCF93DF9390E0FC01E7
:1002A000E656FF4F24918A579F4FFC018491882383
:1002B000C9F090E0880F991FFC01E859FF4FA59104
:1002C000B491FC01E458FF4FC591D49161110DC068
:1002D0009FB7F8948C91209582238C938881282352
:1002E00028839FBFDF91CF910895623051F49FB76B
:1002F000F8943C91822F809583238C93E8812E2B58
:10030000EFCF8FB7F894EC912E2B2C938FBFEACFC1
:100310003FB7F8948091130190911401A0911501B9
:10032000B091160126B5A89B05C02F3F19F0019684
:10033000A11DB11D3FBFBA2FA92F982F8827BC013F
:10034000CD01620F711D811D911D42E0660F771F67
:10035000881F991F4A95D1F708950F931F93CF9344
:10036000DF93CDB7DEB729970FB6F894DEBF0FBE87
:10037000CDBF8091200190912101892B09F47CC08F
:100380000E948801009126011091270120912801E7
:1003900030912901601771078207930740F4609339
:1003A00026017093270180932801909329010091E1
:1003B0002601109127012091280130912901601B0D
:1003C000710B820B930B6C32714081059105C0F269
:1003D000F89480911B0190911C019A838983E0918C
:1003E0002001F0912101DF01119680818987909190
:1003F0001701E0912A01F0912B0180912C019923A2
:1004000009F445C09081982B988790818095892325
:100410008F838F818C8388E08B8358856F8149859A
:100420003B812C8189819A81508347FD252F3A9504
:100430002083262F39F0441F00C000006083000095
:1004400000C0F2CF38E04D9160830000019761F762
:10045000F0932B01E0932A0149873B832C839A83F5
:10046000898378940E948801609326017093270104
:10047000809328019093290129960FB6F894DEBF46
:100480000FBECDBFDF91CF911F910F910895908145
:10049000982B98879081809589238F838F818E8375
:1004A00088E08D8358856F8149853D812E818981C2
:1004B0009A81508347FD252F00C000C0208300C0D3
:1004C00000C000C000C000C060830000262F3A9525
:1004D00041F0441F000000C000C000C000C000C0C8
:1004E000E8CF38E04D9100C0608300C0019709F764
:1004F000F0932B01E0932A0149873D832E83AFCFF0
:100500008F929F92AF92BF92CF92DF92EF92FF9223
:100510004B015C010E9488016B017C010E948801F3
:100520006C197D098E099F09683E7340810591050C
:10053000A8F321E0821A9108A108B10888EEC80E3C
:1005400083E0D81EE11CF11C81149104A104B104C4
:1005500029F7FF90EF90DF90CF90BF90AF909F90E2
:100560008F900895EF92FF920F931F93CF93DF9395
:1005700064E070E081E090E00E9493068C0164E00A
:1005800070E081E090E00E9493067C0164E070E0FE
:1005900081E090E00E949306EC0180E590E0F80194
:1005A0009183808381E590E0F7019183808382E5E8
:1005B00090E099838883F801F382E282F701D38384
:1005C000C28366E070E081E090E00E949306FC0147
:1005D00090930D0180930C0181E090E091838083E2
:1005E00013830283D583C483DF91CF911F910F9131
:1005F000FF90EF900895CF93DF93C0E0D1E00E9489
:10060000F205BE010E94790690930B0180930A01C6
:10061000E0910C01F0910D010280F381E02D21E0C9
:1006200030E0309759F0408151818417950711F4DB
:1006300030E020E00280F381E02DF3CF232BF9F2AC
:10064000DF91CF9108950F931F93CF93DF9304E031
:1006500010E0D0E0C0E020E040E06FEFCE010E946B
:100660008D002196C11581E0D807A9F70E94AD0140
:1006700066E470E080E090E00E948002D0E0C0E09C
:1006800020E040E060E0CE010E948D002196C1157F
:1006900081E0D807A9F70E94AD0166E470E080E030
:1006A00090E00E9480020150110999F60E94B20266
:1006B000DF91CF911F910F910C94FB021F920F922B
:1006C0000FB60F9211242F933F938F939F93AF9365
:1006D000BF9380910F0190911001A0911101B091F1
:1006E000120130910E0123E0230F2D3758F50196AA
:1006F000A11DB11D20930E0180930F019093100155
:10070000A0931101B09312018091130190911401F3
:10071000A0911501B09116010196A11DB11D809304
:10072000130190931401A0931501B0931601BF918A
:10073000AF919F918F913F912F910F900FBE0F908E
:100740001F90189526E8230F0296A11DB11DD2CF48
:10075000CF93DF9300D01F92CDB7DEB7789484B5E6
:10076000826084BD84B5816084BD85B5826085BDAD
:1007700085B5816085BD80916E00816080936E003B
:10078000109281008091810082608093810080912D
:1007900081008160809381008091800081608093DE
:1007A00080008091B10084608093B1008091B0009E
:1007B00081608093B00080917A00846080937A0099
:1007C00080917A00826080937A0080917A008160C3
:1007D00080937A0080917A00806880937A001092EA
:1007E000C10080911D0190911E0197FD07C061E03D
:1007F0000E944C0180911D010E94FC0081E08093C9
:10080000180160911F01693C29F12091200130916C
:1008100021016150C9F070E08FEF98EC0E946506ED
:10082000F90140911B0150911C01CF01821B930BD8
:100830008417950760F44081469FC001479F900D43
:10084000112490833196EDCF70E060E0E9CF89EC20
:1008500080931F010E94AD010E94B2020E94FB0220
:1008600062E086E00E944C0162E084E00E944C015C
:1008700062E085E00E944C0162E083E00E944C014E
:1008800066246A94762C88248394912C20E1E22EAD
:10089000F12C30EFA32EBB24BA9440E0242E40E08C
:1008A000342E1B821A8222E34DEC6AE98A819B81F5
:1008B0000E948D008A819B8101969B838A8381158A
:1008C000914089F7E0910C01F0910D01FB83EA83DF
:1008D000028113810115110551F020E047ED6FEF02
:1008E000D8018D919C910E948D00F801F1CFAA81D1
:1008F000BB811496ED91FC9120E048E76FEF808179
:1009000091810E948D00C0900A01D0900B0120E0DF
:1009100040E06FEFC6010E948D000E94AD0107E02C
:1009200010E086E00E942301898383E00E94230176
:10093000482E84E00E942301582E85E00E94230166
:10094000B981B11127C0EA81FB81B182A08262E343
:1009500070E080E090E00E9480020150110909F7E8
:10096000AA81BB811496ED91FC91159780819181AC
:100970002D913C918C01020F131F0F3F1105F9F0CF
:10098000F0F00E9423032114310409F48ACF0E945D
:10099000000087CF411005C0AA81BB81ED92FC9277
:1009A000D6CF511005C0EA81FB8191828082CFCFE2
:1009B0008111CDCFAA81BB816D927C92C8CF2130AD
:1009C0003105A9F4B7010E9479060F97D1F2AA81E7
:1009D000BB811296ED91FC91309789F080819181D5
:1009E0000817190771F20280F381E02DF5CF2F3F30
:1009F0003F4F69F78F709927892B49F7C2CFC016EF
:100A0000D10659F50E94FB02E1E0F0E0FB83EA83A6
:100A100064E070E081E090E00E949306DC010D93B9
:100A20001C93E0910C01F0910D01A481B581139606
:100A30009C938E931297958384838A819B81892BC3
:100A400009F0A1CF82819381DC0112962D913C9116
:100A5000338322830E944B0796CF1B821A82D8CF02
:100A6000CF93DF931092180110921F01109226016C
:100A700010922701109228011092290181E08093A1
:100A80002501809322011092230192E0909324018A
:100A900080931701C0E0D3E0D0931C01C0931B01E9
:100AA00080E093E00E94AF069093210180932001A3
:100AB000009799F1FC019E01119221503040E1F71D
:100AC00080E091E090931A018093190182E090E018
:100AD00090931E0180931D0180911801882339F0A5
:100AE00061E082E00E944C0182E00E94FC00E8E8A4
:100AF000F0E0E491F0E0EE0FFF1FE458FF4F859126
:100B0000949190932B0180932A01ECE9F0E0E49119
:100B1000E0932C01DF91CF91089510921C01109267
:100B20001B0110921A0110921901D0CF809120015F
:100B3000909121010E944B0780911D0190911E010F
:100B400097FD03C060E00C944C0108958F929F9232
:100B5000AF92BF92CF92DF92EF92FF92CF93DF934B
:100B6000EC01688179818A819B816115710581051C
:100B7000910521F464E279ED8BE597E02DE133EF07
:100B800041E050E00E94020649015A019B01AC017C
:100B9000A7EAB1E40E9421066B017C01ACEEB4EF40
:100BA000A50194010E942F06DC01CB018C0D9D1D37
:100BB000AE1DBF1DB7FF03C00197A109B0488883D0
:100BC0009983AA83BB839F77DF91CF91FF90EF90AA
:100BD000DF90CF90BF90AF909F908F9008950E942C
:100BE000A605089580E091E00E94A6050895B0E072
:100BF000A0E08093000190930101A0930201B093C3
:100C000003010895052E97FB1EF400940E94190617
:100C100057FD07D00E94340607FC03D04EF40C9415
:100C2000190650954095309521953F4F4F4F5F4F96
:100C3000089590958095709561957F4F8F4F9F4F48
:100C400008950E945606A59F900DB49F900DA49FF5
:100C5000800D911D11240895B7FF0C9421060E9468
:100C60002106821B930B0895A1E21A2EAA1BBB1B1F
:100C7000FD010DC0AA1FBB1FEE1FFF1FA217B30768
:100C8000E407F50720F0A21BB30BE40BF50B661F7E
:100C9000771F881F991F1A9469F760957095809542
:100CA00090959B01AC01BD01CF010895A29FB001B9
:100CB000B39FC001A39F700D811D1124911DB29F90
:100CC000700D811D1124911D0895AA1BBB1B51E1BC
:100CD00007C0AA1FBB1FA617B70710F0A61BB70BAC
:100CE000881F991F5A95A9F780959095BC01CD0151
:100CF000089597FB072E16F4009407D077FD09D0CE
:100D00000E94650607FC05D03EF4909581959F4FA3
:100D10000895709561957F4F0895EE0FFF1F059020
:100D2000F491E02D09940F931F93CF93DF93869F47
:100D30008001879F100D969F100D1124C8010E94FD
:100D4000AF06EC01009729F0A80170E060E00E9476
:100D5000D407CE01DF91CF911F910F9108950F938A
:100D60001F93CF93DF938230910510F482E090E0DF
:100D7000E0912F01F091300130E020E0B0E0A0E000
:100D8000309799F42115310509F44AC0281B390B15
:100D900024303105D8F58A819B816115710589F16F
:100DA000FB0193838283FE0111C040815181028146
:100DB000138148175907E0F04817590799F410971D
:100DC00061F012960C93129713961C933296CF01F2
:100DD000DF91CF911F910F91089500932F011093F0
:100DE0003001F4CF2115310551F04217530738F087
:100DF000A901DB019A01BD01DF01F801C1CFEF01BB
:100E0000F9CF9093300180932F01CDCFFE01E20FF7
:100E1000F31F819391932250310939832883D7CFCF
:100E200020912D0130912E01232B41F420910601B8
:100E30003091070130932E0120932D012091040160
:100E4000309105012115310541F42DB73EB7409190
:100E5000080150910901241B350BE0912D01F091FF
:100E60002E01E217F307A0F42E1B3F0B28173907BA
:100E700078F0AC014E5F5F4F2417350748F04E0FF6
:100E80005F1F50932E0140932D01819391939FCF2B
:100E9000F0E0E0E09CCFCF93DF930097E9F0FC0116
:100EA000329713821282A0912F01B0913001ED018F
:100EB00030E020E01097A1F420813181820F931F50
:100EC00020912D0130912E012817390709F061C0BA
:100ED000F0932E01E0932D01DF91CF910895EA0167
:100EE000CE17DF07E8F54A815B819E014115510568
:100EF000B1F7E901FB83EA8349915991C40FD51FEA
:100F0000EC17FD0761F4808191810296840F951F93
:100F1000E90199838883828193819B838A83F0E0AE
:100F2000E0E012968D919C9113970097B9F52D9161
:100F30003C911197CD010296820F931F20912D01B4
:100F400030912E012817390739F6309751F5109254
:100F5000300110922F01B0932E01A0932D01BCCF30
:100F6000D383C28340815181840F951FC817D9074D
:100F700061F44E5F5F4F88819981480F591F5183FB
:100F800040838A819B81938382832115310509F0F7
:100F9000B0CFF0933001E0932F019ECFFD01DC0133
:100FA000C0CF13821282D7CFDC0101C06D934150B4
:100FB0005040E0F7089510E0C2E6D0E004C0FE0122
:100FC0000E948D062196C336D107C9F7F894FFCF4A
:0A0FD0000100000000003101800064
:00000001FF
